{
  "transactions": [
    {
      "hash": "0x1b22d29d37f14422fc6c7d5af37fac653a8a6d6ec2d721b0b1fefcefb55fd278",
      "transactionType": "CALL",
      "contractName": null,
      "contractAddress": "0x779877a7b0d9e8603169ddbd7836e478b4624789",
      "function": "transferAndCall(address,uint256,bytes)",
      "arguments": [
        "0x9DdfaCa8183c41ad55329BdeeD9F6A8d53168B1B",
        "3000000000000000000",
        "0x609e02639e7d6f668df16b8fa55325b48038545453e3b576863bb8e2f490ed76"
      ],
      "transaction": {
        "from": "0xdca57915f01c34043d4304450f663caf84b82fdf",
        "to": "0x779877a7b0d9e8603169ddbd7836e478b4624789",
        "gas": "0x14cbb",
        "value": "0x0",
        "input": "0x4000aea00000000000000000000000009ddfaca8183c41ad55329bdeed9f6a8d53168b1b00000000000000000000000000000000000000000000000029a2241af62c000000000000000000000000000000000000000000000000000000000000000000600000000000000000000000000000000000000000000000000000000000000020609e02639e7d6f668df16b8fa55325b48038545453e3b576863bb8e2f490ed76",
        "nonce": "0x9",
        "chainId": "0xaa36a7"
      },
      "additionalContracts": [],
      "isFixedGasLimit": false
    }
  ],
  "receipts": [
    {
      "status": "0x1",
      "cumulativeGasUsed": "0x9620c8",
      "logs": [
        {
          "address": "0x779877a7b0d9e8603169ddbd7836e478b4624789",
          "topics": [
            "0xddf252ad1be2c89b69c2b068fc378daa952ba7f163c4a11628f55a4df523b3ef",
            "0x000000000000000000000000dca57915f01c34043d4304450f663caf84b82fdf",
            "0x0000000000000000000000009ddfaca8183c41ad55329bdeed9f6a8d53168b1b"
          ],
          "data": "0x00000000000000000000000000000000000000000000000029a2241af62c0000",
          "blockHash": "0x809c4f44a5ff20da05146e5a4df4e93b4f8d6a3331040d302daa740953ef3e74",
          "blockNumber": "0x63f30a",
          "transactionHash": "0x1b22d29d37f14422fc6c7d5af37fac653a8a6d6ec2d721b0b1fefcefb55fd278",
          "transactionIndex": "0x31",
          "logIndex": "0x79",
          "removed": false
        },
        {
          "address": "0x779877a7b0d9e8603169ddbd7836e478b4624789",
          "topics": [
            "0xe19260aff97b920c7df27010903aeb9c8d2be5d310a2c67824cf3f15396e4c16",
            "0x000000000000000000000000dca57915f01c34043d4304450f663caf84b82fdf",
            "0x0000000000000000000000009ddfaca8183c41ad55329bdeed9f6a8d53168b1b"
          ],
          "data": "0x00000000000000000000000000000000000000000000000029a2241af62c000000000000000000000000000000000000000000000000000000000000000000400000000000000000000000000000000000000000000000000000000000000020609e02639e7d6f668df16b8fa55325b48038545453e3b576863bb8e2f490ed76",
          "blockHash": "0x809c4f44a5ff20da05146e5a4df4e93b4f8d6a3331040d302daa740953ef3e74",
          "blockNumber": "0x63f30a",
          "transactionHash": "0x1b22d29d37f14422fc6c7d5af37fac653a8a6d6ec2d721b0b1fefcefb55fd278",
          "transactionIndex": "0x31",
          "logIndex": "0x7a",
          "removed": false
        },
        {
          "address": "0x9ddfaca8183c41ad55329bdeed9f6a8d53168b1b",
          "topics": [
            "0x1ced9348ff549fceab2ac57cd3a9de38edaaab274b725ee82c23e8fc8c4eec7a",
            "0x609e02639e7d6f668df16b8fa55325b48038545453e3b576863bb8e2f490ed76"
          ],
          "data": "0x000000000000000000000000000000000000000000000000016345785d8a00000000000000000000000000000000000000000000000000002b05699353b60000",
          "blockHash": "0x809c4f44a5ff20da05146e5a4df4e93b4f8d6a3331040d302daa740953ef3e74",
          "blockNumber": "0x63f30a",
          "transactionHash": "0x1b22d29d37f14422fc6c7d5af37fac653a8a6d6ec2d721b0b1fefcefb55fd278",
          "transactionIndex": "0x31",
          "logIndex": "0x7b",
          "removed": false
        }
      ],
      "logsBloom": "0x00000004000000000000000000000000000000000020000000000000020000000000000000000000000000000000000000000000000000000000000000000000000000000000000000000008000000000000000000000000000020000020000008000000100000000000000000000000000000000000000000000010000040000000000000000000000208010000800000000060000000800000000000000000000000000000000000800000010000000000000000000000000004000000000000000002000000000000000000000000000000000000000100000000000000000010000000000000800000000000000000000000000000000000000000000000",
      "type": "0x2",
      "transactionHash": "0x1b22d29d37f14422fc6c7d5af37fac653a8a6d6ec2d721b0b1fefcefb55fd278",
      "transactionIndex": "0x31",
      "blockHash": "0x809c4f44a5ff20da05146e5a4df4e93b4f8d6a3331040d302daa740953ef3e74",
      "blockNumber": "0x63f30a",
      "gasUsed": "0xf0e5",
      "effectiveGasPrice": "0xbb3882892",
      "from": "0xdca57915f01c34043d4304450f663caf84b82fdf",
      "to": "0x779877a7b0d9e8603169ddbd7836e478b4624789",
      "contractAddress": null
    }
  ],
  "libraries": [],
  "pending": [],
  "returns": {
    "1": {
      "internal_type": "contract HelperConfig",
      "value": "0xC7f2Cf4845C6db0e1a1e91ED41Bcd0FcC1b0E141"
    },
    "0": {
      "internal_type": "contract Raffle",
      "value": "0xdaE97900D4B184c5D2012dcdB658c008966466DD"
    }
  },
  "timestamp": 1724340230,
  "chain": 11155111,
  "commit": "6df440c"
}